{
  "contractName": "NftMarket",
  "abi": [
    {
      "inputs": [],
      "stateMutability": "nonpayable",
      "type": "constructor"
    },
    {
      "anonymous": false,
      "inputs": [
        {
          "indexed": true,
          "internalType": "address",
          "name": "owner",
          "type": "address"
        },
        {
          "indexed": true,
          "internalType": "address",
          "name": "approved",
          "type": "address"
        },
        {
          "indexed": true,
          "internalType": "uint256",
          "name": "tokenId",
          "type": "uint256"
        }
      ],
      "name": "Approval",
      "type": "event"
    },
    {
      "anonymous": false,
      "inputs": [
        {
          "indexed": true,
          "internalType": "address",
          "name": "owner",
          "type": "address"
        },
        {
          "indexed": true,
          "internalType": "address",
          "name": "operator",
          "type": "address"
        },
        {
          "indexed": false,
          "internalType": "bool",
          "name": "approved",
          "type": "bool"
        }
      ],
      "name": "ApprovalForAll",
      "type": "event"
    },
    {
      "anonymous": false,
      "inputs": [
        {
          "indexed": false,
          "internalType": "uint256",
          "name": "_fromTokenId",
          "type": "uint256"
        },
        {
          "indexed": false,
          "internalType": "uint256",
          "name": "_toTokenId",
          "type": "uint256"
        }
      ],
      "name": "BatchMetadataUpdate",
      "type": "event"
    },
    {
      "anonymous": false,
      "inputs": [
        {
          "indexed": false,
          "internalType": "uint256",
          "name": "_tokenId",
          "type": "uint256"
        }
      ],
      "name": "MetadataUpdate",
      "type": "event"
    },
    {
      "anonymous": false,
      "inputs": [
        {
          "indexed": false,
          "internalType": "uint256",
          "name": "tokenId",
          "type": "uint256"
        },
        {
          "indexed": false,
          "internalType": "uint256",
          "name": "price",
          "type": "uint256"
        },
        {
          "indexed": false,
          "internalType": "address",
          "name": "creator",
          "type": "address"
        },
        {
          "indexed": false,
          "internalType": "bool",
          "name": "isListed",
          "type": "bool"
        }
      ],
      "name": "NftItemCreated",
      "type": "event"
    },
    {
      "anonymous": false,
      "inputs": [
        {
          "indexed": true,
          "internalType": "address",
          "name": "previousOwner",
          "type": "address"
        },
        {
          "indexed": true,
          "internalType": "address",
          "name": "newOwner",
          "type": "address"
        }
      ],
      "name": "OwnershipTransferred",
      "type": "event"
    },
    {
      "anonymous": false,
      "inputs": [
        {
          "indexed": true,
          "internalType": "address",
          "name": "from",
          "type": "address"
        },
        {
          "indexed": true,
          "internalType": "address",
          "name": "to",
          "type": "address"
        },
        {
          "indexed": true,
          "internalType": "uint256",
          "name": "tokenId",
          "type": "uint256"
        }
      ],
      "name": "Transfer",
      "type": "event"
    },
    {
      "inputs": [
        {
          "internalType": "address",
          "name": "to",
          "type": "address"
        },
        {
          "internalType": "uint256",
          "name": "tokenId",
          "type": "uint256"
        }
      ],
      "name": "approve",
      "outputs": [],
      "stateMutability": "nonpayable",
      "type": "function"
    },
    {
      "inputs": [
        {
          "internalType": "address",
          "name": "owner",
          "type": "address"
        }
      ],
      "name": "balanceOf",
      "outputs": [
        {
          "internalType": "uint256",
          "name": "",
          "type": "uint256"
        }
      ],
      "stateMutability": "view",
      "type": "function"
    },
    {
      "inputs": [
        {
          "internalType": "uint256",
          "name": "tokenId",
          "type": "uint256"
        }
      ],
      "name": "getApproved",
      "outputs": [
        {
          "internalType": "address",
          "name": "",
          "type": "address"
        }
      ],
      "stateMutability": "view",
      "type": "function"
    },
    {
      "inputs": [
        {
          "internalType": "address",
          "name": "owner",
          "type": "address"
        },
        {
          "internalType": "address",
          "name": "operator",
          "type": "address"
        }
      ],
      "name": "isApprovedForAll",
      "outputs": [
        {
          "internalType": "bool",
          "name": "",
          "type": "bool"
        }
      ],
      "stateMutability": "view",
      "type": "function"
    },
    {
      "inputs": [],
      "name": "listingPrice",
      "outputs": [
        {
          "internalType": "uint256",
          "name": "",
          "type": "uint256"
        }
      ],
      "stateMutability": "view",
      "type": "function"
    },
    {
      "inputs": [],
      "name": "name",
      "outputs": [
        {
          "internalType": "string",
          "name": "",
          "type": "string"
        }
      ],
      "stateMutability": "view",
      "type": "function"
    },
    {
      "inputs": [],
      "name": "owner",
      "outputs": [
        {
          "internalType": "address",
          "name": "",
          "type": "address"
        }
      ],
      "stateMutability": "view",
      "type": "function"
    },
    {
      "inputs": [
        {
          "internalType": "uint256",
          "name": "tokenId",
          "type": "uint256"
        }
      ],
      "name": "ownerOf",
      "outputs": [
        {
          "internalType": "address",
          "name": "",
          "type": "address"
        }
      ],
      "stateMutability": "view",
      "type": "function"
    },
    {
      "inputs": [],
      "name": "renounceOwnership",
      "outputs": [],
      "stateMutability": "nonpayable",
      "type": "function"
    },
    {
      "inputs": [
        {
          "internalType": "address",
          "name": "from",
          "type": "address"
        },
        {
          "internalType": "address",
          "name": "to",
          "type": "address"
        },
        {
          "internalType": "uint256",
          "name": "tokenId",
          "type": "uint256"
        }
      ],
      "name": "safeTransferFrom",
      "outputs": [],
      "stateMutability": "nonpayable",
      "type": "function"
    },
    {
      "inputs": [
        {
          "internalType": "address",
          "name": "from",
          "type": "address"
        },
        {
          "internalType": "address",
          "name": "to",
          "type": "address"
        },
        {
          "internalType": "uint256",
          "name": "tokenId",
          "type": "uint256"
        },
        {
          "internalType": "bytes",
          "name": "data",
          "type": "bytes"
        }
      ],
      "name": "safeTransferFrom",
      "outputs": [],
      "stateMutability": "nonpayable",
      "type": "function"
    },
    {
      "inputs": [
        {
          "internalType": "address",
          "name": "operator",
          "type": "address"
        },
        {
          "internalType": "bool",
          "name": "approved",
          "type": "bool"
        }
      ],
      "name": "setApprovalForAll",
      "outputs": [],
      "stateMutability": "nonpayable",
      "type": "function"
    },
    {
      "inputs": [
        {
          "internalType": "bytes4",
          "name": "interfaceId",
          "type": "bytes4"
        }
      ],
      "name": "supportsInterface",
      "outputs": [
        {
          "internalType": "bool",
          "name": "",
          "type": "bool"
        }
      ],
      "stateMutability": "view",
      "type": "function"
    },
    {
      "inputs": [],
      "name": "symbol",
      "outputs": [
        {
          "internalType": "string",
          "name": "",
          "type": "string"
        }
      ],
      "stateMutability": "view",
      "type": "function"
    },
    {
      "inputs": [
        {
          "internalType": "uint256",
          "name": "tokenId",
          "type": "uint256"
        }
      ],
      "name": "tokenURI",
      "outputs": [
        {
          "internalType": "string",
          "name": "",
          "type": "string"
        }
      ],
      "stateMutability": "view",
      "type": "function"
    },
    {
      "inputs": [
        {
          "internalType": "address",
          "name": "from",
          "type": "address"
        },
        {
          "internalType": "address",
          "name": "to",
          "type": "address"
        },
        {
          "internalType": "uint256",
          "name": "tokenId",
          "type": "uint256"
        }
      ],
      "name": "transferFrom",
      "outputs": [],
      "stateMutability": "nonpayable",
      "type": "function"
    },
    {
      "inputs": [
        {
          "internalType": "address",
          "name": "newOwner",
          "type": "address"
        }
      ],
      "name": "transferOwnership",
      "outputs": [],
      "stateMutability": "nonpayable",
      "type": "function"
    },
    {
      "inputs": [
        {
          "internalType": "uint256",
          "name": "newPrice",
          "type": "uint256"
        }
      ],
      "name": "setListingPrice",
      "outputs": [],
      "stateMutability": "nonpayable",
      "type": "function"
    },
    {
      "inputs": [
        {
          "internalType": "uint256",
          "name": "tokenId",
          "type": "uint256"
        }
      ],
      "name": "getNftItem",
      "outputs": [
        {
          "components": [
            {
              "internalType": "uint256",
              "name": "tokenId",
              "type": "uint256"
            },
            {
              "internalType": "uint256",
              "name": "price",
              "type": "uint256"
            },
            {
              "internalType": "address",
              "name": "creator",
              "type": "address"
            },
            {
              "internalType": "bool",
              "name": "isListed",
              "type": "bool"
            }
          ],
          "internalType": "struct NftMarket.NftItem",
          "name": "",
          "type": "tuple"
        }
      ],
      "stateMutability": "view",
      "type": "function"
    },
    {
      "inputs": [],
      "name": "listedItemsCount",
      "outputs": [
        {
          "internalType": "uint256",
          "name": "",
          "type": "uint256"
        }
      ],
      "stateMutability": "view",
      "type": "function"
    },
    {
      "inputs": [
        {
          "internalType": "string",
          "name": "tokenURI",
          "type": "string"
        }
      ],
      "name": "tokenURIExists",
      "outputs": [
        {
          "internalType": "bool",
          "name": "",
          "type": "bool"
        }
      ],
      "stateMutability": "view",
      "type": "function"
    },
    {
      "inputs": [],
      "name": "totalSupply",
      "outputs": [
        {
          "internalType": "uint256",
          "name": "",
          "type": "uint256"
        }
      ],
      "stateMutability": "view",
      "type": "function"
    },
    {
      "inputs": [
        {
          "internalType": "uint256",
          "name": "index",
          "type": "uint256"
        }
      ],
      "name": "tokenByIndex",
      "outputs": [
        {
          "internalType": "uint256",
          "name": "",
          "type": "uint256"
        }
      ],
      "stateMutability": "view",
      "type": "function"
    },
    {
      "inputs": [
        {
          "internalType": "address",
          "name": "owner",
          "type": "address"
        },
        {
          "internalType": "uint256",
          "name": "index",
          "type": "uint256"
        }
      ],
      "name": "tokenOfOwnerByIndex",
      "outputs": [
        {
          "internalType": "uint256",
          "name": "",
          "type": "uint256"
        }
      ],
      "stateMutability": "view",
      "type": "function"
    },
    {
      "inputs": [],
      "name": "getAllNftsOnSale",
      "outputs": [
        {
          "components": [
            {
              "internalType": "uint256",
              "name": "tokenId",
              "type": "uint256"
            },
            {
              "internalType": "uint256",
              "name": "price",
              "type": "uint256"
            },
            {
              "internalType": "address",
              "name": "creator",
              "type": "address"
            },
            {
              "internalType": "bool",
              "name": "isListed",
              "type": "bool"
            }
          ],
          "internalType": "struct NftMarket.NftItem[]",
          "name": "",
          "type": "tuple[]"
        }
      ],
      "stateMutability": "view",
      "type": "function"
    },
    {
      "inputs": [],
      "name": "getOwnedNfts",
      "outputs": [
        {
          "components": [
            {
              "internalType": "uint256",
              "name": "tokenId",
              "type": "uint256"
            },
            {
              "internalType": "uint256",
              "name": "price",
              "type": "uint256"
            },
            {
              "internalType": "address",
              "name": "creator",
              "type": "address"
            },
            {
              "internalType": "bool",
              "name": "isListed",
              "type": "bool"
            }
          ],
          "internalType": "struct NftMarket.NftItem[]",
          "name": "",
          "type": "tuple[]"
        }
      ],
      "stateMutability": "view",
      "type": "function"
    },
    {
      "inputs": [
        {
          "internalType": "string",
          "name": "tokenURI",
          "type": "string"
        },
        {
          "internalType": "uint256",
          "name": "price",
          "type": "uint256"
        }
      ],
      "name": "mintToken",
      "outputs": [
        {
          "internalType": "uint256",
          "name": "",
          "type": "uint256"
        }
      ],
      "stateMutability": "payable",
      "type": "function"
    },
    {
      "inputs": [
        {
          "internalType": "uint256",
          "name": "tokenId",
          "type": "uint256"
        }
      ],
      "name": "buyNft",
      "outputs": [],
      "stateMutability": "payable",
      "type": "function"
    },
    {
      "inputs": [
        {
          "internalType": "uint256",
          "name": "tokenId",
          "type": "uint256"
        },
        {
          "internalType": "uint256",
          "name": "newPrice",
          "type": "uint256"
        }
      ],
      "name": "placeNftOnSale",
      "outputs": [],
      "stateMutability": "payable",
      "type": "function"
    }
  ],
  "bytecode": "0x60806040526658d15e176280006008553480156200001c57600080fd5b506040518060400160405280600f81526020017f4e4654204d61726b6574706c61636500000000000000000000000000000000008152506040518060400160405280600481526020017f4e46544d0000000000000000000000000000000000000000000000000000000081525081600090816200009a91906200041d565b508060019081620000ac91906200041d565b505050620000cf620000c3620000d560201b60201c565b620000dd60201b60201c565b62000504565b600033905090565b6000600760009054906101000a900473ffffffffffffffffffffffffffffffffffffffff16905081600760006101000a81548173ffffffffffffffffffffffffffffffffffffffff021916908373ffffffffffffffffffffffffffffffffffffffff1602179055508173ffffffffffffffffffffffffffffffffffffffff168173ffffffffffffffffffffffffffffffffffffffff167f8be0079c531659141344cd1fd0a4f28419497f9722a3daafe3b4186f6b6457e060405160405180910390a35050565b600081519050919050565b7f4e487b7100000000000000000000000000000000000000000000000000000000600052604160045260246000fd5b7f4e487b7100000000000000000000000000000000000000000000000000000000600052602260045260246000fd5b600060028204905060018216806200022557607f821691505b6020821081036200023b576200023a620001dd565b5b50919050565b60008190508160005260206000209050919050565b60006020601f8301049050919050565b600082821b905092915050565b600060088302620002a57fffffffffffffffffffffffffffffffffffffffffffffffffffffffffffffffff8262000266565b620002b1868362000266565b95508019841693508086168417925050509392505050565b6000819050919050565b6000819050919050565b6000620002fe620002f8620002f284620002c9565b620002d3565b620002c9565b9050919050565b6000819050919050565b6200031a83620002dd565b62000332620003298262000305565b84845462000273565b825550505050565b600090565b620003496200033a565b620003568184846200030f565b505050565b5b818110156200037e57620003726000826200033f565b6001810190506200035c565b5050565b601f821115620003cd57620003978162000241565b620003a28462000256565b81016020851015620003b2578190505b620003ca620003c18562000256565b8301826200035b565b50505b505050565b600082821c905092915050565b6000620003f260001984600802620003d2565b1980831691505092915050565b60006200040d8383620003df565b9150826002028217905092915050565b6200042882620001a3565b67ffffffffffffffff811115620004445762000443620001ae565b5b6200045082546200020c565b6200045d82828562000382565b600060209050601f83116001811462000495576000841562000480578287015190505b6200048c8582620003ff565b865550620004fc565b601f198416620004a58662000241565b60005b82811015620004cf57848901518255600182019150602085019450602081019050620004a8565b86831015620004ef5784890151620004eb601f891682620003df565b8355505b6001600288020188555050505b505050505050565b6149a780620005146000396000f3fe6080604052600436106101c25760003560e01c80636f1a0af5116100f7578063a22cb46511610095578063c87b56dd11610064578063c87b56dd14610651578063ccb4918d1461068e578063e985e9c5146106b9578063f2fde38b146106f6576101c2565b8063a22cb465146105a4578063b88d4fde146105cd578063c046372c146105f6578063c78f19f914610626576101c2565b8063715018a6116100d1578063715018a61461050e5780637c726b69146105255780638da5cb5b1461054e57806395d89b4114610579576101c2565b80636f1a0af51461046957806370a08231146104a657806370cbcb43146104e3576101c2565b8063243adbdd1161016457806342842e0e1161013e57806342842e0e1461038957806343d32ae7146103b25780634f6ccce7146103ef5780636352211e1461042c576101c2565b8063243adbdd146103055780632f745c591461032157806336b536be1461035e576101c2565b8063095ea7b3116101a0578063095ea7b31461026c57806318160ddd1461029557806321f422e5146102c057806323b872dd146102dc576101c2565b806301ffc9a7146101c757806306fdde0314610204578063081812fc1461022f575b600080fd5b3480156101d357600080fd5b506101ee60048036038101906101e99190612f9b565b61071f565b6040516101fb9190612fe3565b60405180910390f35b34801561021057600080fd5b50610219610780565b604051610226919061308e565b60405180910390f35b34801561023b57600080fd5b50610256600480360381019061025191906130e6565b610812565b6040516102639190613154565b60405180910390f35b34801561027857600080fd5b50610293600480360381019061028e919061319b565b610858565b005b3480156102a157600080fd5b506102aa61096f565b6040516102b791906131ea565b60405180910390f35b6102da60048036038101906102d59190613205565b61097c565b005b3480156102e857600080fd5b5061030360048036038101906102fe9190613245565b610af8565b005b61031f600480360381019061031a91906130e6565b610b58565b005b34801561032d57600080fd5b506103486004803603810190610343919061319b565b610cc0565b60405161035591906131ea565b60405180910390f35b34801561036a57600080fd5b50610373610d65565b60405161038091906133c9565b60405180910390f35b34801561039557600080fd5b506103b060048036038101906103ab9190613245565b610eff565b005b3480156103be57600080fd5b506103d960048036038101906103d49190613520565b610f1f565b6040516103e69190612fe3565b60405180910390f35b3480156103fb57600080fd5b50610416600480360381019061041191906130e6565b610f54565b60405161042391906131ea565b60405180910390f35b34801561043857600080fd5b50610453600480360381019061044e91906130e6565b610fc5565b6040516104609190613154565b60405180910390f35b34801561047557600080fd5b50610490600480360381019061048b91906130e6565b61104b565b60405161049d91906135be565b60405180910390f35b3480156104b257600080fd5b506104cd60048036038101906104c891906135d9565b6110fd565b6040516104da91906131ea565b60405180910390f35b3480156104ef57600080fd5b506104f86111b4565b60405161050591906133c9565b60405180910390f35b34801561051a57600080fd5b50610523611318565b005b34801561053157600080fd5b5061054c600480360381019061054791906130e6565b61132c565b005b34801561055a57600080fd5b50610563611381565b6040516105709190613154565b60405180910390f35b34801561058557600080fd5b5061058e6113ab565b60405161059b919061308e565b60405180910390f35b3480156105b057600080fd5b506105cb60048036038101906105c69190613632565b61143d565b005b3480156105d957600080fd5b506105f460048036038101906105ef9190613713565b611453565b005b610610600480360381019061060b9190613796565b6114b5565b60405161061d91906131ea565b60405180910390f35b34801561063257600080fd5b5061063b6115c5565b60405161064891906131ea565b60405180910390f35b34801561065d57600080fd5b50610678600480360381019061067391906130e6565b6115cb565b604051610685919061308e565b60405180910390f35b34801561069a57600080fd5b506106a36116dd565b6040516106b091906131ea565b60405180910390f35b3480156106c557600080fd5b506106e060048036038101906106db91906137f2565b6116ee565b6040516106ed9190612fe3565b60405180910390f35b34801561070257600080fd5b5061071d600480360381019061071891906135d9565b611782565b005b6000634906490660e01b7bffffffffffffffffffffffffffffffffffffffffffffffffffffffff1916827bffffffffffffffffffffffffffffffffffffffffffffffffffffffff19161480610779575061077882611805565b5b9050919050565b60606000805461078f90613861565b80601f01602080910402602001604051908101604052809291908181526020018280546107bb90613861565b80156108085780601f106107dd57610100808354040283529160200191610808565b820191906000526020600020905b8154815290600101906020018083116107eb57829003601f168201915b5050505050905090565b600061081d826118e7565b6004600083815260200190815260200160002060009054906101000a900473ffffffffffffffffffffffffffffffffffffffff169050919050565b600061086382610fc5565b90508073ffffffffffffffffffffffffffffffffffffffff168373ffffffffffffffffffffffffffffffffffffffff16036108d3576040517f08c379a00000000000000000000000000000000000000000000000000000000081526004016108ca90613904565b60405180910390fd5b8073ffffffffffffffffffffffffffffffffffffffff166108f2611932565b73ffffffffffffffffffffffffffffffffffffffff16148061092157506109208161091b611932565b6116ee565b5b610960576040517f08c379a000000000000000000000000000000000000000000000000000000000815260040161095790613996565b60405180910390fd5b61096a838361193a565b505050565b6000600f80549050905090565b3373ffffffffffffffffffffffffffffffffffffffff1661099c83610fc5565b73ffffffffffffffffffffffffffffffffffffffff16146109f2576040517f08c379a00000000000000000000000000000000000000000000000000000000081526004016109e990613a28565b60405180910390fd5b60001515600c600084815260200190815260200160002060020160149054906101000a900460ff16151514610a5c576040517f08c379a0000000000000000000000000000000000000000000000000000000008152600401610a5390613a94565b60405180910390fd5b6008543414610aa0576040517f08c379a0000000000000000000000000000000000000000000000000000000008152600401610a9790613b26565b60405180910390fd5b6001600c600084815260200190815260200160002060020160146101000a81548160ff02191690831515021790555080600c600084815260200190815260200160002060010181905550610af460096119f3565b5050565b610b09610b03611932565b82611a09565b610b48576040517f08c379a0000000000000000000000000000000000000000000000000000000008152600401610b3f90613bb8565b60405180910390fd5b610b53838383611a9e565b505050565b6000600c60008381526020019081526020016000206001015490506000610b7e83610fc5565b90508073ffffffffffffffffffffffffffffffffffffffff163373ffffffffffffffffffffffffffffffffffffffff1603610bee576040517f08c379a0000000000000000000000000000000000000000000000000000000008152600401610be590613c24565b60405180910390fd5b813414610c30576040517f08c379a0000000000000000000000000000000000000000000000000000000008152600401610c2790613c90565b60405180910390fd5b6000600c600085815260200190815260200160002060020160146101000a81548160ff021916908315150217905550610c696009611d97565b610c74813385611a9e565b8073ffffffffffffffffffffffffffffffffffffffff166108fc349081150290604051600060405180830381858888f19350505050158015610cba573d6000803e3d6000fd5b50505050565b6000610ccb836110fd565b8210610d0c576040517f08c379a0000000000000000000000000000000000000000000000000000000008152600401610d0390613cfc565b60405180910390fd5b600d60008473ffffffffffffffffffffffffffffffffffffffff1673ffffffffffffffffffffffffffffffffffffffff168152602001908152602001600020600083815260200190815260200160002054905092915050565b60606000610d7161096f565b9050600080610d806009611df3565b67ffffffffffffffff811115610d9957610d986133f5565b5b604051908082528060200260200182016040528015610dd257816020015b610dbf612eef565b815260200190600190039081610db75790505b50905060005b83811015610ef5576000610deb82610f54565b90506000600c60008381526020019081526020016000209050600115158160020160149054906101000a900460ff16151503610ee0578060405180608001604052908160008201548152602001600182015481526020016002820160009054906101000a900473ffffffffffffffffffffffffffffffffffffffff1673ffffffffffffffffffffffffffffffffffffffff1673ffffffffffffffffffffffffffffffffffffffff1681526020016002820160149054906101000a900460ff161515151581525050848681518110610ec557610ec4613d1c565b5b6020026020010181905250600185610edd9190613d7a565b94505b50508080610eed90613dae565b915050610dd8565b5080935050505090565b610f1a83838360405180602001604052806000815250611453565b505050565b6000600b82604051610f319190613e32565b908152602001604051809103902060009054906101000a900460ff169050919050565b6000610f5e61096f565b8210610f9f576040517f08c379a0000000000000000000000000000000000000000000000000000000008152600401610f9690613cfc565b60405180910390fd5b600f8281548110610fb357610fb2613d1c565b5b90600052602060002001549050919050565b600080610fd183611e01565b9050600073ffffffffffffffffffffffffffffffffffffffff168173ffffffffffffffffffffffffffffffffffffffff1603611042576040517f08c379a000000000000000000000000000000000000000000000000000000000815260040161103990613e95565b60405180910390fd5b80915050919050565b611053612eef565b600c600083815260200190815260200160002060405180608001604052908160008201548152602001600182015481526020016002820160009054906101000a900473ffffffffffffffffffffffffffffffffffffffff1673ffffffffffffffffffffffffffffffffffffffff1673ffffffffffffffffffffffffffffffffffffffff1681526020016002820160149054906101000a900460ff1615151515815250509050919050565b60008073ffffffffffffffffffffffffffffffffffffffff168273ffffffffffffffffffffffffffffffffffffffff160361116d576040517f08c379a000000000000000000000000000000000000000000000000000000000815260040161116490613f27565b60405180910390fd5b600360008373ffffffffffffffffffffffffffffffffffffffff1673ffffffffffffffffffffffffffffffffffffffff168152602001908152602001600020549050919050565b606060006111c1336110fd565b905060008167ffffffffffffffff8111156111df576111de6133f5565b5b60405190808252806020026020018201604052801561121857816020015b611205612eef565b8152602001906001900390816111fd5790505b50905060005b8281101561130f5760006112323383610cc0565b90506000600c600083815260200190815260200160002090508060405180608001604052908160008201548152602001600182015481526020016002820160009054906101000a900473ffffffffffffffffffffffffffffffffffffffff1673ffffffffffffffffffffffffffffffffffffffff1673ffffffffffffffffffffffffffffffffffffffff1681526020016002820160149054906101000a900460ff1615151515815250508484815181106112ef576112ee613d1c565b5b60200260200101819052505050808061130790613dae565b91505061121e565b50809250505090565b611320611e3e565b61132a6000611ebc565b565b611334611e3e565b60008111611377576040517f08c379a000000000000000000000000000000000000000000000000000000000815260040161136e90613f93565b60405180910390fd5b8060088190555050565b6000600760009054906101000a900473ffffffffffffffffffffffffffffffffffffffff16905090565b6060600180546113ba90613861565b80601f01602080910402602001604051908101604052809291908181526020018280546113e690613861565b80156114335780601f1061140857610100808354040283529160200191611433565b820191906000526020600020905b81548152906001019060200180831161141657829003601f168201915b5050505050905090565b61144f611448611932565b8383611f82565b5050565b61146461145e611932565b83611a09565b6114a3576040517f08c379a000000000000000000000000000000000000000000000000000000000815260040161149a90613bb8565b60405180910390fd5b6114af848484846120ee565b50505050565b60006114c083610f1f565b15611500576040517f08c379a00000000000000000000000000000000000000000000000000000000081526004016114f790613fff565b60405180910390fd5b6008543414611544576040517f08c379a000000000000000000000000000000000000000000000000000000000815260040161153b90613b26565b60405180910390fd5b61154e600a6119f3565b61155860096119f3565b6000611564600a611df3565b9050611570338261214a565b61157a8185612168565b611584818461220c565b6001600b856040516115969190613e32565b908152602001604051809103902060006101000a81548160ff0219169083151502179055508091505092915050565b60085481565b60606115d6826118e7565b60006006600084815260200190815260200160002080546115f690613861565b80601f016020809104026020016040519081016040528092919081815260200182805461162290613861565b801561166f5780601f106116445761010080835404028352916020019161166f565b820191906000526020600020905b81548152906001019060200180831161165257829003601f168201915b50505050509050600061168061235c565b905060008151036116955781925050506116d8565b6000825111156116ca5780826040516020016116b292919061401f565b604051602081830303815290604052925050506116d8565b6116d384612373565b925050505b919050565b60006116e96009611df3565b905090565b6000600560008473ffffffffffffffffffffffffffffffffffffffff1673ffffffffffffffffffffffffffffffffffffffff16815260200190815260200160002060008373ffffffffffffffffffffffffffffffffffffffff1673ffffffffffffffffffffffffffffffffffffffff16815260200190815260200160002060009054906101000a900460ff16905092915050565b61178a611e3e565b600073ffffffffffffffffffffffffffffffffffffffff168173ffffffffffffffffffffffffffffffffffffffff16036117f9576040517f08c379a00000000000000000000000000000000000000000000000000000000081526004016117f0906140b5565b60405180910390fd5b61180281611ebc565b50565b60007f80ac58cd000000000000000000000000000000000000000000000000000000007bffffffffffffffffffffffffffffffffffffffffffffffffffffffff1916827bffffffffffffffffffffffffffffffffffffffffffffffffffffffff191614806118d057507f5b5e139f000000000000000000000000000000000000000000000000000000007bffffffffffffffffffffffffffffffffffffffffffffffffffffffff1916827bffffffffffffffffffffffffffffffffffffffffffffffffffffffff1916145b806118e057506118df826123db565b5b9050919050565b6118f081612445565b61192f576040517f08c379a000000000000000000000000000000000000000000000000000000000815260040161192690613e95565b60405180910390fd5b50565b600033905090565b816004600083815260200190815260200160002060006101000a81548173ffffffffffffffffffffffffffffffffffffffff021916908373ffffffffffffffffffffffffffffffffffffffff160217905550808273ffffffffffffffffffffffffffffffffffffffff166119ad83610fc5565b73ffffffffffffffffffffffffffffffffffffffff167f8c5be1e5ebec7d5bd14f71427d1e84f3dd0314c0f7b2291e5b200ac8c7c3b92560405160405180910390a45050565b6001816000016000828254019250508190555050565b600080611a1583610fc5565b90508073ffffffffffffffffffffffffffffffffffffffff168473ffffffffffffffffffffffffffffffffffffffff161480611a575750611a5681856116ee565b5b80611a9557508373ffffffffffffffffffffffffffffffffffffffff16611a7d84610812565b73ffffffffffffffffffffffffffffffffffffffff16145b91505092915050565b8273ffffffffffffffffffffffffffffffffffffffff16611abe82610fc5565b73ffffffffffffffffffffffffffffffffffffffff1614611b14576040517f08c379a0000000000000000000000000000000000000000000000000000000008152600401611b0b90614147565b60405180910390fd5b600073ffffffffffffffffffffffffffffffffffffffff168273ffffffffffffffffffffffffffffffffffffffff1603611b83576040517f08c379a0000000000000000000000000000000000000000000000000000000008152600401611b7a906141d9565b60405180910390fd5b611b908383836001612486565b8273ffffffffffffffffffffffffffffffffffffffff16611bb082610fc5565b73ffffffffffffffffffffffffffffffffffffffff1614611c06576040517f08c379a0000000000000000000000000000000000000000000000000000000008152600401611bfd90614147565b60405180910390fd5b6004600082815260200190815260200160002060006101000a81549073ffffffffffffffffffffffffffffffffffffffff02191690556001600360008573ffffffffffffffffffffffffffffffffffffffff1673ffffffffffffffffffffffffffffffffffffffff168152602001908152602001600020600082825403925050819055506001600360008473ffffffffffffffffffffffffffffffffffffffff1673ffffffffffffffffffffffffffffffffffffffff16815260200190815260200160002060008282540192505081905550816002600083815260200190815260200160002060006101000a81548173ffffffffffffffffffffffffffffffffffffffff021916908373ffffffffffffffffffffffffffffffffffffffff160217905550808273ffffffffffffffffffffffffffffffffffffffff168473ffffffffffffffffffffffffffffffffffffffff167fddf252ad1be2c89b69c2b068fc378daa952ba7f163c4a11628f55a4df523b3ef60405160405180910390a4611d92838383600161259a565b505050565b60008160000154905060008111611de3576040517f08c379a0000000000000000000000000000000000000000000000000000000008152600401611dda90614245565b60405180910390fd5b6001810382600001819055505050565b600081600001549050919050565b60006002600083815260200190815260200160002060009054906101000a900473ffffffffffffffffffffffffffffffffffffffff169050919050565b611e46611932565b73ffffffffffffffffffffffffffffffffffffffff16611e64611381565b73ffffffffffffffffffffffffffffffffffffffff1614611eba576040517f08c379a0000000000000000000000000000000000000000000000000000000008152600401611eb1906142b1565b60405180910390fd5b565b6000600760009054906101000a900473ffffffffffffffffffffffffffffffffffffffff16905081600760006101000a81548173ffffffffffffffffffffffffffffffffffffffff021916908373ffffffffffffffffffffffffffffffffffffffff1602179055508173ffffffffffffffffffffffffffffffffffffffff168173ffffffffffffffffffffffffffffffffffffffff167f8be0079c531659141344cd1fd0a4f28419497f9722a3daafe3b4186f6b6457e060405160405180910390a35050565b8173ffffffffffffffffffffffffffffffffffffffff168373ffffffffffffffffffffffffffffffffffffffff1603611ff0576040517f08c379a0000000000000000000000000000000000000000000000000000000008152600401611fe79061431d565b60405180910390fd5b80600560008573ffffffffffffffffffffffffffffffffffffffff1673ffffffffffffffffffffffffffffffffffffffff16815260200190815260200160002060008473ffffffffffffffffffffffffffffffffffffffff1673ffffffffffffffffffffffffffffffffffffffff16815260200190815260200160002060006101000a81548160ff0219169083151502179055508173ffffffffffffffffffffffffffffffffffffffff168373ffffffffffffffffffffffffffffffffffffffff167f17307eab39ab6107e8899845ad3d59bd9653f200f220920489ca2b5937696c31836040516120e19190612fe3565b60405180910390a3505050565b6120f9848484611a9e565b612105848484846125a0565b612144576040517f08c379a000000000000000000000000000000000000000000000000000000000815260040161213b906143af565b60405180910390fd5b50505050565b612164828260405180602001604052806000815250612727565b5050565b61217182612445565b6121b0576040517f08c379a00000000000000000000000000000000000000000000000000000000081526004016121a790614441565b60405180910390fd5b806006600084815260200190815260200160002090816121d0919061460d565b507ff8e1a15aba9398e019f0b49df1a4fde98ee17ae345cb5f6b5e2c27f5033e8ce78260405161220091906131ea565b60405180910390a15050565b6000811161224f576040517f08c379a000000000000000000000000000000000000000000000000000000000815260040161224690613f93565b60405180910390fd5b60405180608001604052808381526020018281526020013373ffffffffffffffffffffffffffffffffffffffff16815260200160011515815250600c6000848152602001908152602001600020600082015181600001556020820151816001015560408201518160020160006101000a81548173ffffffffffffffffffffffffffffffffffffffff021916908373ffffffffffffffffffffffffffffffffffffffff16021790555060608201518160020160146101000a81548160ff0219169083151502179055509050507f470031062672bc0246e132c723a729c4676710ec663a29e86c88678032daddea828233600160405161235094939291906146df565b60405180910390a15050565b606060405180602001604052806000815250905090565b606061237e826118e7565b600061238861235c565b905060008151116123a857604051806020016040528060008152506123d3565b806123b284612782565b6040516020016123c392919061401f565b6040516020818303038152906040525b915050919050565b60007f01ffc9a7000000000000000000000000000000000000000000000000000000007bffffffffffffffffffffffffffffffffffffffffffffffffffffffff1916827bffffffffffffffffffffffffffffffffffffffffffffffffffffffff1916149050919050565b60008073ffffffffffffffffffffffffffffffffffffffff1661246783611e01565b73ffffffffffffffffffffffffffffffffffffffff1614159050919050565b61249284848484612850565b600073ffffffffffffffffffffffffffffffffffffffff168473ffffffffffffffffffffffffffffffffffffffff16036124d4576124cf82612856565b612513565b8273ffffffffffffffffffffffffffffffffffffffff168473ffffffffffffffffffffffffffffffffffffffff161461251257612511848361289f565b5b5b600073ffffffffffffffffffffffffffffffffffffffff168373ffffffffffffffffffffffffffffffffffffffff16036125555761255082612a0c565b612594565b8373ffffffffffffffffffffffffffffffffffffffff168373ffffffffffffffffffffffffffffffffffffffff1614612593576125928383612add565b5b5b50505050565b50505050565b60006125c18473ffffffffffffffffffffffffffffffffffffffff16612b5c565b1561271a578373ffffffffffffffffffffffffffffffffffffffff1663150b7a026125ea611932565b8786866040518563ffffffff1660e01b815260040161260c9493929190614779565b6020604051808303816000875af192505050801561264857506040513d601f19601f8201168201806040525081019061264591906147da565b60015b6126ca573d8060008114612678576040519150601f19603f3d011682016040523d82523d6000602084013e61267d565b606091505b5060008151036126c2576040517f08c379a00000000000000000000000000000000000000000000000000000000081526004016126b9906143af565b60405180910390fd5b805181602001fd5b63150b7a0260e01b7bffffffffffffffffffffffffffffffffffffffffffffffffffffffff1916817bffffffffffffffffffffffffffffffffffffffffffffffffffffffff19161491505061271f565b600190505b949350505050565b6127318383612b7f565b61273e60008484846125a0565b61277d576040517f08c379a0000000000000000000000000000000000000000000000000000000008152600401612774906143af565b60405180910390fd5b505050565b60606000600161279184612d9c565b01905060008167ffffffffffffffff8111156127b0576127af6133f5565b5b6040519080825280601f01601f1916602001820160405280156127e25781602001600182028036833780820191505090505b509050600082602001820190505b600115612845578080600190039150507f3031323334353637383961626364656600000000000000000000000000000000600a86061a8153600a858161283957612838614807565b5b049450600085036127f0575b819350505050919050565b50505050565b600f805490506010600083815260200190815260200160002081905550600f81908060018154018082558091505060019003906000526020600020016000909190919091505550565b600060016128ac846110fd565b6128b69190614836565b90506000600e600084815260200190815260200160002054905081811461299b576000600d60008673ffffffffffffffffffffffffffffffffffffffff1673ffffffffffffffffffffffffffffffffffffffff168152602001908152602001600020600084815260200190815260200160002054905080600d60008773ffffffffffffffffffffffffffffffffffffffff1673ffffffffffffffffffffffffffffffffffffffff16815260200190815260200160002060008481526020019081526020016000208190555081600e600083815260200190815260200160002081905550505b600e600084815260200190815260200160002060009055600d60008573ffffffffffffffffffffffffffffffffffffffff1673ffffffffffffffffffffffffffffffffffffffff16815260200190815260200160002060008381526020019081526020016000206000905550505050565b60006001600f80549050612a209190614836565b90506000601060008481526020019081526020016000205490506000600f8381548110612a5057612a4f613d1c565b5b9060005260206000200154905080600f8381548110612a7257612a71613d1c565b5b90600052602060002001819055508160106000838152602001908152602001600020819055506010600085815260200190815260200160002060009055600f805480612ac157612ac061486a565b5b6001900381819060005260206000200160009055905550505050565b6000612ae8836110fd565b905081600d60008573ffffffffffffffffffffffffffffffffffffffff1673ffffffffffffffffffffffffffffffffffffffff16815260200190815260200160002060008381526020019081526020016000208190555080600e600084815260200190815260200160002081905550505050565b6000808273ffffffffffffffffffffffffffffffffffffffff163b119050919050565b600073ffffffffffffffffffffffffffffffffffffffff168273ffffffffffffffffffffffffffffffffffffffff1603612bee576040517f08c379a0000000000000000000000000000000000000000000000000000000008152600401612be5906148e5565b60405180910390fd5b612bf781612445565b15612c37576040517f08c379a0000000000000000000000000000000000000000000000000000000008152600401612c2e90614951565b60405180910390fd5b612c45600083836001612486565b612c4e81612445565b15612c8e576040517f08c379a0000000000000000000000000000000000000000000000000000000008152600401612c8590614951565b60405180910390fd5b6001600360008473ffffffffffffffffffffffffffffffffffffffff1673ffffffffffffffffffffffffffffffffffffffff16815260200190815260200160002060008282540192505081905550816002600083815260200190815260200160002060006101000a81548173ffffffffffffffffffffffffffffffffffffffff021916908373ffffffffffffffffffffffffffffffffffffffff160217905550808273ffffffffffffffffffffffffffffffffffffffff16600073ffffffffffffffffffffffffffffffffffffffff167fddf252ad1be2c89b69c2b068fc378daa952ba7f163c4a11628f55a4df523b3ef60405160405180910390a4612d9860008383600161259a565b5050565b600080600090507a184f03e93ff9f4daa797ed6e38ed64bf6a1f0100000000000000008310612dfa577a184f03e93ff9f4daa797ed6e38ed64bf6a1f0100000000000000008381612df057612def614807565b5b0492506040810190505b6d04ee2d6d415b85acef81000000008310612e37576d04ee2d6d415b85acef81000000008381612e2d57612e2c614807565b5b0492506020810190505b662386f26fc100008310612e6657662386f26fc100008381612e5c57612e5b614807565b5b0492506010810190505b6305f5e1008310612e8f576305f5e1008381612e8557612e84614807565b5b0492506008810190505b6127108310612eb4576127108381612eaa57612ea9614807565b5b0492506004810190505b60648310612ed75760648381612ecd57612ecc614807565b5b0492506002810190505b600a8310612ee6576001810190505b80915050919050565b60405180608001604052806000815260200160008152602001600073ffffffffffffffffffffffffffffffffffffffff1681526020016000151581525090565b6000604051905090565b600080fd5b600080fd5b60007fffffffff0000000000000000000000000000000000000000000000000000000082169050919050565b612f7881612f43565b8114612f8357600080fd5b50565b600081359050612f9581612f6f565b92915050565b600060208284031215612fb157612fb0612f39565b5b6000612fbf84828501612f86565b91505092915050565b60008115159050919050565b612fdd81612fc8565b82525050565b6000602082019050612ff86000830184612fd4565b92915050565b600081519050919050565b600082825260208201905092915050565b60005b8381101561303857808201518184015260208101905061301d565b60008484015250505050565b6000601f19601f8301169050919050565b600061306082612ffe565b61306a8185613009565b935061307a81856020860161301a565b61308381613044565b840191505092915050565b600060208201905081810360008301526130a88184613055565b905092915050565b6000819050919050565b6130c3816130b0565b81146130ce57600080fd5b50565b6000813590506130e0816130ba565b92915050565b6000602082840312156130fc576130fb612f39565b5b600061310a848285016130d1565b91505092915050565b600073ffffffffffffffffffffffffffffffffffffffff82169050919050565b600061313e82613113565b9050919050565b61314e81613133565b82525050565b60006020820190506131696000830184613145565b92915050565b61317881613133565b811461318357600080fd5b50565b6000813590506131958161316f565b92915050565b600080604083850312156131b2576131b1612f39565b5b60006131c085828601613186565b92505060206131d1858286016130d1565b9150509250929050565b6131e4816130b0565b82525050565b60006020820190506131ff60008301846131db565b92915050565b6000806040838503121561321c5761321b612f39565b5b600061322a858286016130d1565b925050602061323b858286016130d1565b9150509250929050565b60008060006060848603121561325e5761325d612f39565b5b600061326c86828701613186565b935050602061327d86828701613186565b925050604061328e868287016130d1565b9150509250925092565b600081519050919050565b600082825260208201905092915050565b6000819050602082019050919050565b6132cd816130b0565b82525050565b6132dc81613133565b82525050565b6132eb81612fc8565b82525050565b60808201600082015161330760008501826132c4565b50602082015161331a60208501826132c4565b50604082015161332d60408501826132d3565b50606082015161334060608501826132e2565b50505050565b600061335283836132f1565b60808301905092915050565b6000602082019050919050565b600061337682613298565b61338081856132a3565b935061338b836132b4565b8060005b838110156133bc5781516133a38882613346565b97506133ae8361335e565b92505060018101905061338f565b5085935050505092915050565b600060208201905081810360008301526133e3818461336b565b905092915050565b600080fd5b600080fd5b7f4e487b7100000000000000000000000000000000000000000000000000000000600052604160045260246000fd5b61342d82613044565b810181811067ffffffffffffffff8211171561344c5761344b6133f5565b5b80604052505050565b600061345f612f2f565b905061346b8282613424565b919050565b600067ffffffffffffffff82111561348b5761348a6133f5565b5b61349482613044565b9050602081019050919050565b82818337600083830152505050565b60006134c36134be84613470565b613455565b9050828152602081018484840111156134df576134de6133f0565b5b6134ea8482856134a1565b509392505050565b600082601f830112613507576135066133eb565b5b81356135178482602086016134b0565b91505092915050565b60006020828403121561353657613535612f39565b5b600082013567ffffffffffffffff81111561355457613553612f3e565b5b613560848285016134f2565b91505092915050565b60808201600082015161357f60008501826132c4565b50602082015161359260208501826132c4565b5060408201516135a560408501826132d3565b5060608201516135b860608501826132e2565b50505050565b60006080820190506135d36000830184613569565b92915050565b6000602082840312156135ef576135ee612f39565b5b60006135fd84828501613186565b91505092915050565b61360f81612fc8565b811461361a57600080fd5b50565b60008135905061362c81613606565b92915050565b6000806040838503121561364957613648612f39565b5b600061365785828601613186565b92505060206136688582860161361d565b9150509250929050565b600067ffffffffffffffff82111561368d5761368c6133f5565b5b61369682613044565b9050602081019050919050565b60006136b66136b184613672565b613455565b9050828152602081018484840111156136d2576136d16133f0565b5b6136dd8482856134a1565b509392505050565b600082601f8301126136fa576136f96133eb565b5b813561370a8482602086016136a3565b91505092915050565b6000806000806080858703121561372d5761372c612f39565b5b600061373b87828801613186565b945050602061374c87828801613186565b935050604061375d878288016130d1565b925050606085013567ffffffffffffffff81111561377e5761377d612f3e565b5b61378a878288016136e5565b91505092959194509250565b600080604083850312156137ad576137ac612f39565b5b600083013567ffffffffffffffff8111156137cb576137ca612f3e565b5b6137d7858286016134f2565b92505060206137e8858286016130d1565b9150509250929050565b6000806040838503121561380957613808612f39565b5b600061381785828601613186565b925050602061382885828601613186565b9150509250929050565b7f4e487b7100000000000000000000000000000000000000000000000000000000600052602260045260246000fd5b6000600282049050600182168061387957607f821691505b60208210810361388c5761388b613832565b5b50919050565b7f4552433732313a20617070726f76616c20746f2063757272656e74206f776e6560008201527f7200000000000000000000000000000000000000000000000000000000000000602082015250565b60006138ee602183613009565b91506138f982613892565b604082019050919050565b6000602082019050818103600083015261391d816138e1565b9050919050565b7f4552433732313a20617070726f76652063616c6c6572206973206e6f7420746f60008201527f6b656e206f776e6572206f7220617070726f76656420666f7220616c6c000000602082015250565b6000613980603d83613009565b915061398b82613924565b604082019050919050565b600060208201905081810360008301526139af81613973565b9050919050565b7f596f7520617265206e6f7420746865206f776e6572206f662074686973204e4660008201527f5400000000000000000000000000000000000000000000000000000000000000602082015250565b6000613a12602183613009565b9150613a1d826139b6565b604082019050919050565b60006020820190508181036000830152613a4181613a05565b9050919050565b7f4974656d20697320616c7265616479206f6e2073616c65000000000000000000600082015250565b6000613a7e601783613009565b9150613a8982613a48565b602082019050919050565b60006020820190508181036000830152613aad81613a71565b9050919050565b7f5072696365206d75737420626520657175616c20746f206c697374696e67207060008201527f7269636500000000000000000000000000000000000000000000000000000000602082015250565b6000613b10602483613009565b9150613b1b82613ab4565b604082019050919050565b60006020820190508181036000830152613b3f81613b03565b9050919050565b7f4552433732313a2063616c6c6572206973206e6f7420746f6b656e206f776e6560008201527f72206f7220617070726f76656400000000000000000000000000000000000000602082015250565b6000613ba2602d83613009565b9150613bad82613b46565b604082019050919050565b60006020820190508181036000830152613bd181613b95565b9050919050565b7f596f7520616c7265616479206f776e2074686973204e46540000000000000000600082015250565b6000613c0e601883613009565b9150613c1982613bd8565b602082019050919050565b60006020820190508181036000830152613c3d81613c01565b9050919050565b7f506c65617365207375626d6974207468652061736b696e672070726963650000600082015250565b6000613c7a601e83613009565b9150613c8582613c44565b602082019050919050565b60006020820190508181036000830152613ca981613c6d565b9050919050565b7f496e646578206f7574206f6620626f756e647300000000000000000000000000600082015250565b6000613ce6601383613009565b9150613cf182613cb0565b602082019050919050565b60006020820190508181036000830152613d1581613cd9565b9050919050565b7f4e487b7100000000000000000000000000000000000000000000000000000000600052603260045260246000fd5b7f4e487b7100000000000000000000000000000000000000000000000000000000600052601160045260246000fd5b6000613d85826130b0565b9150613d90836130b0565b9250828201905080821115613da857613da7613d4b565b5b92915050565b6000613db9826130b0565b91507fffffffffffffffffffffffffffffffffffffffffffffffffffffffffffffffff8203613deb57613dea613d4b565b5b600182019050919050565b600081905092915050565b6000613e0c82612ffe565b613e168185613df6565b9350613e2681856020860161301a565b80840191505092915050565b6000613e3e8284613e01565b915081905092915050565b7f4552433732313a20696e76616c696420746f6b656e2049440000000000000000600082015250565b6000613e7f601883613009565b9150613e8a82613e49565b602082019050919050565b60006020820190508181036000830152613eae81613e72565b9050919050565b7f4552433732313a2061646472657373207a65726f206973206e6f74206120766160008201527f6c6964206f776e65720000000000000000000000000000000000000000000000602082015250565b6000613f11602983613009565b9150613f1c82613eb5565b604082019050919050565b60006020820190508181036000830152613f4081613f04565b9050919050565b7f5072696365206d7573742062652067726561746572207468616e203000000000600082015250565b6000613f7d601c83613009565b9150613f8882613f47565b602082019050919050565b60006020820190508181036000830152613fac81613f70565b9050919050565b7f546f6b656e2055524920616c7265616479206578697374730000000000000000600082015250565b6000613fe9601883613009565b9150613ff482613fb3565b602082019050919050565b6000602082019050818103600083015261401881613fdc565b9050919050565b600061402b8285613e01565b91506140378284613e01565b91508190509392505050565b7f4f776e61626c653a206e6577206f776e657220697320746865207a65726f206160008201527f6464726573730000000000000000000000000000000000000000000000000000602082015250565b600061409f602683613009565b91506140aa82614043565b604082019050919050565b600060208201905081810360008301526140ce81614092565b9050919050565b7f4552433732313a207472616e736665722066726f6d20696e636f72726563742060008201527f6f776e6572000000000000000000000000000000000000000000000000000000602082015250565b6000614131602583613009565b915061413c826140d5565b604082019050919050565b6000602082019050818103600083015261416081614124565b9050919050565b7f4552433732313a207472616e7366657220746f20746865207a65726f2061646460008201527f7265737300000000000000000000000000000000000000000000000000000000602082015250565b60006141c3602483613009565b91506141ce82614167565b604082019050919050565b600060208201905081810360008301526141f2816141b6565b9050919050565b7f436f756e7465723a2064656372656d656e74206f766572666c6f770000000000600082015250565b600061422f601b83613009565b915061423a826141f9565b602082019050919050565b6000602082019050818103600083015261425e81614222565b9050919050565b7f4f776e61626c653a2063616c6c6572206973206e6f7420746865206f776e6572600082015250565b600061429b602083613009565b91506142a682614265565b602082019050919050565b600060208201905081810360008301526142ca8161428e565b9050919050565b7f4552433732313a20617070726f766520746f2063616c6c657200000000000000600082015250565b6000614307601983613009565b9150614312826142d1565b602082019050919050565b60006020820190508181036000830152614336816142fa565b9050919050565b7f4552433732313a207472616e7366657220746f206e6f6e20455243373231526560008201527f63656976657220696d706c656d656e7465720000000000000000000000000000602082015250565b6000614399603283613009565b91506143a48261433d565b604082019050919050565b600060208201905081810360008301526143c88161438c565b9050919050565b7f45524337323155524953746f726167653a2055524920736574206f66206e6f6e60008201527f6578697374656e7420746f6b656e000000000000000000000000000000000000602082015250565b600061442b602e83613009565b9150614436826143cf565b604082019050919050565b6000602082019050818103600083015261445a8161441e565b9050919050565b60008190508160005260206000209050919050565b60006020601f8301049050919050565b600082821b905092915050565b6000600883026144c37fffffffffffffffffffffffffffffffffffffffffffffffffffffffffffffffff82614486565b6144cd8683614486565b95508019841693508086168417925050509392505050565b6000819050919050565b600061450a614505614500846130b0565b6144e5565b6130b0565b9050919050565b6000819050919050565b614524836144ef565b61453861453082614511565b848454614493565b825550505050565b600090565b61454d614540565b61455881848461451b565b505050565b5b8181101561457c57614571600082614545565b60018101905061455e565b5050565b601f8211156145c15761459281614461565b61459b84614476565b810160208510156145aa578190505b6145be6145b685614476565b83018261455d565b50505b505050565b600082821c905092915050565b60006145e4600019846008026145c6565b1980831691505092915050565b60006145fd83836145d3565b9150826002028217905092915050565b61461682612ffe565b67ffffffffffffffff81111561462f5761462e6133f5565b5b6146398254613861565b614644828285614580565b600060209050601f8311600181146146775760008415614665578287015190505b61466f85826145f1565b8655506146d7565b601f19841661468586614461565b60005b828110156146ad57848901518255600182019150602085019450602081019050614688565b868310156146ca57848901516146c6601f8916826145d3565b8355505b6001600288020188555050505b505050505050565b60006080820190506146f460008301876131db565b61470160208301866131db565b61470e6040830185613145565b61471b6060830184612fd4565b95945050505050565b600081519050919050565b600082825260208201905092915050565b600061474b82614724565b614755818561472f565b935061476581856020860161301a565b61476e81613044565b840191505092915050565b600060808201905061478e6000830187613145565b61479b6020830186613145565b6147a860408301856131db565b81810360608301526147ba8184614740565b905095945050505050565b6000815190506147d481612f6f565b92915050565b6000602082840312156147f0576147ef612f39565b5b60006147fe848285016147c5565b91505092915050565b7f4e487b7100000000000000000000000000000000000000000000000000000000600052601260045260246000fd5b6000614841826130b0565b915061484c836130b0565b925082820390508181111561486457614863613d4b565b5b92915050565b7f4e487b7100000000000000000000000000000000000000000000000000000000600052603160045260246000fd5b7f4552433732313a206d696e7420746f20746865207a65726f2061646472657373600082015250565b60006148cf602083613009565b91506148da82614899565b602082019050919050565b600060208201905081810360008301526148fe816148c2565b9050919050565b7f4552433732313a20746f6b656e20616c7265616479206d696e74656400000000600082015250565b600061493b601c83613009565b915061494682614905565b602082019050919050565b6000602082019050818103600083015261496a8161492e565b905091905056fea264697066735822122031ed8794f50c09b010b4a228c7eae7ac350f9fa610b8735bd7fbb2abfe3b796d64736f6c63430008130033",
  "immutableReferences": {},
  "source": "// SPDX-License-Identifier: MIT\npragma solidity ^0.8.0;\n\nimport \"../node_modules/@openzeppelin/contracts/token/ERC721/extensions/ERC721URIStorage.sol\";\nimport \"../node_modules/@openzeppelin/contracts/utils/Counters.sol\";\nimport \"../node_modules/@openzeppelin/contracts/access/Ownable.sol\";\n\ncontract NftMarket is ERC721URIStorage, Ownable {\n    using Counters for Counters.Counter;\n\n    struct NftItem {\n        uint256 tokenId;\n        uint256 price;\n        address creator;\n        bool isListed;\n    }\n\n    uint256 public listingPrice = 0.025 ether;\n\n    Counters.Counter private _listedItems;\n    Counters.Counter private _tokenIds;\n\n    mapping(string => bool) private _usedTokenURIs;\n    mapping(uint256 => NftItem) private _idToNftItem;\n\n    mapping(address => mapping(uint256 => uint256)) private _ownedTokens;\n    mapping(uint256 => uint256) private _idToOwnedIndex;\n\n    uint256[] private _allNfts;\n    mapping(uint256 => uint256) private _idToNftIndex;\n\n    event NftItemCreated(\n        uint256 tokenId,\n        uint256 price,\n        address creator,\n        bool isListed\n    );\n\n    constructor() ERC721(\"NFT Marketplace\", \"NFTM\") {}\n\n    function setListingPrice(uint256 newPrice) external onlyOwner {\n        require(newPrice > 0, \"Price must be greater than 0\");\n        listingPrice = newPrice;\n    }\n\n    function getNftItem(uint256 tokenId) public view returns (NftItem memory) {\n        return _idToNftItem[tokenId];\n    }\n\n    function listedItemsCount() public view returns (uint256) {\n        return _listedItems.current();\n    }\n\n    function tokenURIExists(string memory tokenURI) public view returns (bool) {\n        return _usedTokenURIs[tokenURI];\n    }\n\n    function totalSupply() public view returns (uint256) {\n        return _allNfts.length;\n    }\n\n    function tokenByIndex(uint256 index) public view returns (uint256) {\n        require(index < totalSupply(), \"Index out of bounds\");\n        return _allNfts[index];\n    }\n\n    function tokenOfOwnerByIndex(\n        address owner,\n        uint256 index\n    ) public view returns (uint256) {\n        require(index < ERC721.balanceOf(owner), \"Index out of bounds\");\n        return _ownedTokens[owner][index];\n    }\n\n    function getAllNftsOnSale() public view returns (NftItem[] memory) {\n        uint256 allItemsCount = totalSupply();\n        uint256 currentIndex = 0;\n        NftItem[] memory items = new NftItem[](_listedItems.current());\n\n        for (uint256 i = 0; i < allItemsCount; i++) {\n            uint256 tokenId = tokenByIndex(i);\n            NftItem storage item = _idToNftItem[tokenId];\n\n            if (item.isListed == true) {\n                items[currentIndex] = item;\n                currentIndex += 1;\n            }\n        }\n\n        return items;\n    }\n\n    function getOwnedNfts() public view returns (NftItem[] memory) {\n        uint256 ownedItemsCount = ERC721.balanceOf(msg.sender);\n        NftItem[] memory items = new NftItem[](ownedItemsCount);\n\n        for (uint256 i = 0; i < ownedItemsCount; i++) {\n            uint256 tokenId = tokenOfOwnerByIndex(msg.sender, i);\n            NftItem storage item = _idToNftItem[tokenId];\n            items[i] = item;\n        }\n\n        return items;\n    }\n\n    function mintToken(\n        string memory tokenURI,\n        uint256 price\n    ) public payable returns (uint256) {\n        require(!tokenURIExists(tokenURI), \"Token URI already exists\");\n        require(\n            msg.value == listingPrice,\n            \"Price must be equal to listing price\"\n        );\n\n        _tokenIds.increment();\n        _listedItems.increment();\n\n        uint256 newTokenId = _tokenIds.current();\n\n        _safeMint(msg.sender, newTokenId);\n        _setTokenURI(newTokenId, tokenURI);\n        _createNftItem(newTokenId, price);\n        _usedTokenURIs[tokenURI] = true;\n\n        return newTokenId;\n    }\n\n    function buyNft(uint256 tokenId) public payable {\n        uint256 price = _idToNftItem[tokenId].price;\n        address owner = ERC721.ownerOf(tokenId);\n\n        require(msg.sender != owner, \"You already own this NFT\");\n        require(msg.value == price, \"Please submit the asking price\");\n\n        _idToNftItem[tokenId].isListed = false;\n        _listedItems.decrement();\n\n        _transfer(owner, msg.sender, tokenId);\n        payable(owner).transfer(msg.value);\n    }\n\n    function placeNftOnSale(uint256 tokenId, uint256 newPrice) public payable {\n        require(\n            ERC721.ownerOf(tokenId) == msg.sender,\n            \"You are not the owner of this NFT\"\n        );\n        require(\n            _idToNftItem[tokenId].isListed == false,\n            \"Item is already on sale\"\n        );\n        require(\n            msg.value == listingPrice,\n            \"Price must be equal to listing price\"\n        );\n\n        _idToNftItem[tokenId].isListed = true;\n        _idToNftItem[tokenId].price = newPrice;\n        _listedItems.increment();\n    }\n\n    function _createNftItem(uint256 tokenId, uint256 price) private {\n        require(price > 0, \"Price must be greater than 0\");\n\n        _idToNftItem[tokenId] = NftItem(tokenId, price, msg.sender, true);\n\n        emit NftItemCreated(tokenId, price, msg.sender, true);\n    }\n\n    function _beforeTokenTransfer(\n        address from,\n        address to,\n        uint256 tokenId,\n        uint256 batchSize\n    ) internal virtual override {\n        super._beforeTokenTransfer(from, to, tokenId, batchSize);\n\n        if (from == address(0)) {\n            _addTokenToAllTokensEnumeration(tokenId);\n        } else if (from != to) {\n            _removeTokenFromOwnerEnumeration(from, tokenId);\n        }\n\n        if (to == address(0)) {\n            _removeTokenFromAllTokensEnumeration(tokenId);\n        } else if (to != from) {\n            _addTokenToOwnerEnumeration(to, tokenId);\n        }\n    }\n\n    function _addTokenToAllTokensEnumeration(uint256 tokenId) private {\n        _idToNftIndex[tokenId] = _allNfts.length;\n        _allNfts.push(tokenId);\n    }\n\n    function _addTokenToOwnerEnumeration(address to, uint256 tokenId) private {\n        uint256 length = ERC721.balanceOf(to);\n        _ownedTokens[to][length] = tokenId;\n        _idToOwnedIndex[tokenId] = length;\n    }\n\n    function _removeTokenFromOwnerEnumeration(\n        address from,\n        uint256 tokenId\n    ) private {\n        uint256 lastTokenIndex = ERC721.balanceOf(from) - 1;\n        uint256 tokenIndex = _idToOwnedIndex[tokenId];\n\n        if (tokenIndex != lastTokenIndex) {\n            uint256 lastTokenId = _ownedTokens[from][lastTokenIndex];\n\n            _ownedTokens[from][tokenIndex] = lastTokenId;\n            _idToOwnedIndex[lastTokenId] = tokenIndex;\n        }\n\n        delete _idToOwnedIndex[tokenId];\n        delete _ownedTokens[from][lastTokenIndex];\n    }\n\n    function _removeTokenFromAllTokensEnumeration(uint256 tokenId) private {\n        uint256 lastTokenIndex = _allNfts.length - 1;\n        uint256 tokenIndex = _idToNftIndex[tokenId];\n        uint256 lastTokenId = _allNfts[lastTokenIndex];\n\n        _allNfts[tokenIndex] = lastTokenId;\n        _idToNftIndex[lastTokenId] = tokenIndex;\n\n        delete _idToNftIndex[tokenId];\n        _allNfts.pop();\n    }\n}\n",
  "sourcePath": "C:\\Users\\Admin\\Downloads\\project\\nft-marketplace1\\contracts\\NftMarket.sol",
  "compiler": {
    "name": "solc",
    "version": "0.8.19+commit.7dd6d404.Emscripten.clang"
  },
  "schemaVersion": "3.4.14",
  "updatedAt": "2023-05-29T08:13:10.886Z",
  "devdoc": {
    "events": {
      "Approval(address,address,uint256)": {
        "details": "Emitted when `owner` enables `approved` to manage the `tokenId` token."
      },
      "ApprovalForAll(address,address,bool)": {
        "details": "Emitted when `owner` enables or disables (`approved`) `operator` to manage all of its assets."
      },
      "BatchMetadataUpdate(uint256,uint256)": {
        "details": "This event emits when the metadata of a range of tokens is changed. So that the third-party platforms such as NFT market could timely update the images and related attributes of the NFTs."
      },
      "MetadataUpdate(uint256)": {
        "details": "This event emits when the metadata of a token is changed. So that the third-party platforms such as NFT market could timely update the images and related attributes of the NFT."
      },
      "Transfer(address,address,uint256)": {
        "details": "Emitted when `tokenId` token is transferred from `from` to `to`."
      }
    },
    "kind": "dev",
    "methods": {
      "approve(address,uint256)": {
        "details": "See {IERC721-approve}."
      },
      "balanceOf(address)": {
        "details": "See {IERC721-balanceOf}."
      },
      "getApproved(uint256)": {
        "details": "See {IERC721-getApproved}."
      },
      "isApprovedForAll(address,address)": {
        "details": "See {IERC721-isApprovedForAll}."
      },
      "name()": {
        "details": "See {IERC721Metadata-name}."
      },
      "owner()": {
        "details": "Returns the address of the current owner."
      },
      "ownerOf(uint256)": {
        "details": "See {IERC721-ownerOf}."
      },
      "renounceOwnership()": {
        "details": "Leaves the contract without owner. It will not be possible to call `onlyOwner` functions. Can only be called by the current owner. NOTE: Renouncing ownership will leave the contract without an owner, thereby disabling any functionality that is only available to the owner."
      },
      "safeTransferFrom(address,address,uint256)": {
        "details": "See {IERC721-safeTransferFrom}."
      },
      "safeTransferFrom(address,address,uint256,bytes)": {
        "details": "See {IERC721-safeTransferFrom}."
      },
      "setApprovalForAll(address,bool)": {
        "details": "See {IERC721-setApprovalForAll}."
      },
      "supportsInterface(bytes4)": {
        "details": "See {IERC165-supportsInterface}"
      },
      "symbol()": {
        "details": "See {IERC721Metadata-symbol}."
      },
      "tokenURI(uint256)": {
        "details": "See {IERC721Metadata-tokenURI}."
      },
      "transferFrom(address,address,uint256)": {
        "details": "See {IERC721-transferFrom}."
      },
      "transferOwnership(address)": {
        "details": "Transfers ownership of the contract to a new account (`newOwner`). Can only be called by the current owner."
      }
    },
    "version": 1
  },
  "userdoc": {
    "kind": "user",
    "methods": {},
    "version": 1
  }
}